{
  "_format": "hh-sol-artifact-1",
  "contractName": "EmployeeManager",
  "sourceName": "contracts/SmartContract.sol",
  "abi": [
    {
      "inputs": [
        {
          "internalType": "uint256",
          "name": "employeeId",
          "type": "uint256"
        }
      ],
      "name": "getEmployeeDetails",
      "outputs": [
        {
          "internalType": "uint256",
          "name": "id",
          "type": "uint256"
        },
        {
          "internalType": "string",
          "name": "name",
          "type": "string"
        },
        {
          "internalType": "uint256",
          "name": "age",
          "type": "uint256"
        }
      ],
      "stateMutability": "view",
      "type": "function"
    },
    {
      "inputs": [
        {
          "internalType": "uint256",
          "name": "employeeId",
          "type": "uint256"
        },
        {
          "internalType": "string",
          "name": "name",
          "type": "string"
        },
        {
          "internalType": "uint256",
          "name": "age",
          "type": "uint256"
        }
      ],
      "name": "setEmployeeDetails",
      "outputs": [],
      "stateMutability": "nonpayable",
      "type": "function"
    }
  ],
  "bytecode": "0x608060405234801561001057600080fd5b506106ae806100206000396000f3fe608060405234801561001057600080fd5b50600436106100365760003560e01c806396f400dd1461003b578063a98b371b14610057575b600080fd5b610055600480360381019061005091906103aa565b610089565b005b610071600480360381019061006c9190610381565b610108565b604051610080939291906104b9565b60405180910390f35b60405180606001604052808381526020018281526020016001151581525060008085815260200190815260200160002060008201518160000190805190602001906100d5929190610261565b506020820151816001015560408201518160020160006101000a81548160ff021916908315150217905550905050505050565b60006060600080600085815260200190815260200160002060020160009054906101000a900460ff16610170576040517f08c379a000000000000000000000000000000000000000000000000000000000815260040161016790610499565b60405180910390fd5b600080600086815260200190815260200160002060405180606001604052908160008201805461019f906105c0565b80601f01602080910402602001604051908101604052809291908181526020018280546101cb906105c0565b80156102185780601f106101ed57610100808354040283529160200191610218565b820191906000526020600020905b8154815290600101906020018083116101fb57829003601f168201915b50505050508152602001600182015481526020016002820160009054906101000a900460ff16151515158152505090508481600001518260200151935093509350509193909250565b82805461026d906105c0565b90600052602060002090601f01602090048101928261028f57600085556102d6565b82601f106102a857805160ff19168380011785556102d6565b828001600101855582156102d6579182015b828111156102d55782518255916020019190600101906102ba565b5b5090506102e391906102e7565b5090565b5b808211156103005760008160009055506001016102e8565b5090565b600061031761031284610528565b6104f7565b90508281526020810184848401111561032f57600080fd5b61033a84828561057e565b509392505050565b600082601f83011261035357600080fd5b8135610363848260208601610304565b91505092915050565b60008135905061037b81610661565b92915050565b60006020828403121561039357600080fd5b60006103a18482850161036c565b91505092915050565b6000806000606084860312156103bf57600080fd5b60006103cd8682870161036c565b935050602084013567ffffffffffffffff8111156103ea57600080fd5b6103f686828701610342565b92505060406104078682870161036c565b9150509250925092565b600061041c82610558565b6104268185610563565b935061043681856020860161058d565b61043f81610650565b840191505092915050565b6000610457601783610563565b91507f456d706c6f79656520646f6573206e6f742065786973740000000000000000006000830152602082019050919050565b61049381610574565b82525050565b600060208201905081810360008301526104b28161044a565b9050919050565b60006060820190506104ce600083018661048a565b81810360208301526104e08185610411565b90506104ef604083018461048a565b949350505050565b6000604051905081810181811067ffffffffffffffff8211171561051e5761051d610621565b5b8060405250919050565b600067ffffffffffffffff82111561054357610542610621565b5b601f19601f8301169050602081019050919050565b600081519050919050565b600082825260208201905092915050565b6000819050919050565b82818337600083830152505050565b60005b838110156105ab578082015181840152602081019050610590565b838111156105ba576000848401525b50505050565b600060028204905060018216806105d857607f821691505b602082108114156105ec576105eb6105f2565b5b50919050565b7f4e487b7100000000000000000000000000000000000000000000000000000000600052602260045260246000fd5b7f4e487b7100000000000000000000000000000000000000000000000000000000600052604160045260246000fd5b6000601f19601f8301169050919050565b61066a81610574565b811461067557600080fd5b5056fea264697066735822122068b1c82d7091c524e9cec9fec10954c4844d1fd6129341cc3a2d44bc6188c5c864736f6c63430008000033",
  "linkReferences": {},
  "deployedLinkReferences": {}
}