{
    "_format": "hh-sol-artifact-1",
    "contractName": "EmployeeManager",
    "sourceName": "contracts/SmartContract.sol",
    "abi": [
        {
            "inputs": [
                {
                    "internalType": "uint256",
                    "name": "employeeId",
                    "type": "uint256"
                }
            ],
            "name": "getEmployeeDetails",
            "outputs": [
                {
                    "internalType": "string",
                    "name": "name",
                    "type": "string"
                },
                {
                    "internalType": "uint256",
                    "name": "age",
                    "type": "uint256"
                }
            ],
            "stateMutability": "view",
            "type": "function"
        },
        {
            "inputs": [
                {
                    "internalType": "uint256",
                    "name": "employeeId",
                    "type": "uint256"
                },
                {
                    "internalType": "string",
                    "name": "name",
                    "type": "string"
                },
                {
                    "internalType": "uint256",
                    "name": "age",
                    "type": "uint256"
                }
            ],
            "name": "setEmployeeDetails",
            "outputs": [],
            "stateMutability": "nonpayable",
            "type": "function"
        }
    ],
    "bytecode": "0x608060405234801561001057600080fd5b50610698806100206000396000f3fe608060405234801561001057600080fd5b50600436106100365760003560e01c806396f400dd1461003b578063a98b371b14610057575b600080fd5b610055600480360381019061005091906103a2565b610088565b005b610071600480360381019061006c9190610379565b610107565b60405161007f929190610491565b60405180910390f35b60405180606001604052808381526020018281526020016001151581525060008085815260200190815260200160002060008201518160000190805190602001906100d4929190610259565b506020820151816001015560408201518160020160006101000a81548160ff021916908315150217905550905050505050565b6060600080600084815260200190815260200160002060020160009054906101000a900460ff1661016d576040517f08c379a0000000000000000000000000000000000000000000000000000000008152600401610164906104c1565b60405180910390fd5b600080600085815260200190815260200160002060405180606001604052908160008201805461019c906105aa565b80601f01602080910402602001604051908101604052809291908181526020018280546101c8906105aa565b80156102155780601f106101ea57610100808354040283529160200191610215565b820191906000526020600020905b8154815290600101906020018083116101f857829003601f168201915b50505050508152602001600182015481526020016002820160009054906101000a900460ff1615151515815250509050806000015181602001519250925050915091565b828054610265906105aa565b90600052602060002090601f01602090048101928261028757600085556102ce565b82601f106102a057805160ff19168380011785556102ce565b828001600101855582156102ce579182015b828111156102cd5782518255916020019190600101906102b2565b5b5090506102db91906102df565b5090565b5b808211156102f85760008160009055506001016102e0565b5090565b600061030f61030a84610512565b6104e1565b90508281526020810184848401111561032757600080fd5b610332848285610568565b509392505050565b600082601f83011261034b57600080fd5b813561035b8482602086016102fc565b91505092915050565b6000813590506103738161064b565b92915050565b60006020828403121561038b57600080fd5b600061039984828501610364565b91505092915050565b6000806000606084860312156103b757600080fd5b60006103c586828701610364565b935050602084013567ffffffffffffffff8111156103e257600080fd5b6103ee8682870161033a565b92505060406103ff86828701610364565b9150509250925092565b600061041482610542565b61041e818561054d565b935061042e818560208601610577565b6104378161063a565b840191505092915050565b600061044f60178361054d565b91507f456d706c6f79656520646f6573206e6f742065786973740000000000000000006000830152602082019050919050565b61048b8161055e565b82525050565b600060408201905081810360008301526104ab8185610409565b90506104ba6020830184610482565b9392505050565b600060208201905081810360008301526104da81610442565b9050919050565b6000604051905081810181811067ffffffffffffffff821117156105085761050761060b565b5b8060405250919050565b600067ffffffffffffffff82111561052d5761052c61060b565b5b601f19601f8301169050602081019050919050565b600081519050919050565b600082825260208201905092915050565b6000819050919050565b82818337600083830152505050565b60005b8381101561059557808201518184015260208101905061057a565b838111156105a4576000848401525b50505050565b600060028204905060018216806105c257607f821691505b602082108114156105d6576105d56105dc565b5b50919050565b7f4e487b7100000000000000000000000000000000000000000000000000000000600052602260045260246000fd5b7f4e487b7100000000000000000000000000000000000000000000000000000000600052604160045260246000fd5b6000601f19601f8301169050919050565b6106548161055e565b811461065f57600080fd5b5056fea26469706673582212208abe96297924d904d1cad4f8cef60060cdf77207f12afa9df26fc0e11cb44dc064736f6c63430008000033",
    "linkReferences": {},
    "deployedLinkReferences": {}
}